:100000000C9434000C9451000C9451000C94510049
:100010000C94CF000C9451000C9451000C9451009E
:100020000C9451000C9451000C9451000C9441021A
:100030000C9451000C9451000C9451000C945100FC
:100040000C9451000C9451000C9451000C945100EC
:100050000C9451000C9451000C9451000C945100DC
:100060000C9451000C94510011241FBECFEFD8E026
:10007000DEBFCDBF11E0A0E0B1E0ECE8F6E002C0E9
:1000800005900D92A231B107D9F711E0A2E1B1E0DC
:1000900001C01D92AD31B107E1F70E9485020C94B9
:1000A00044030C9400009BB19F709BB99BB1829557
:1000B000807F982B9BB9299A299A299808951F9394
:1000C000182F289A82958F700E945300812F0E94CA
:1000D000530080E49FE10197F1F71F910895CF93BA
:1000E000DF93EC0102C00E945F0089918823D9F759
:1000F000DF91CF9108951F93182F289882958F70C4
:100100000E945300812F0E94530080E49FE10197D9
:10011000F1F71F910895882319F4862F805802C0A3
:10012000862F80540E947B00089584B1836084B937
:100130008AB1806F8AB980E69AEE0197F1F780E381
:100140000E94530080E29EE40197F1F780E30E9451
:10015000530080EE91E00197F1F780E30E94530095
:1001600080E20E94530080E49FE10197F1F788E26A
:100170000E947B008FE00E947B00089505966AE054
:1001800070E00E941D03CB0135E303C0232F2A95A5
:10019000F1F701972FEF8F3F9207C1F708951F9254
:1001A0000F920FB60F9211248F939F9386B1982FC1
:1001B000907190931C0180728093190180911C01B1
:1001C000882319F081E080931C0180911901882314
:1001D00019F081E08093190180911A018823F1F5CB
:1001E00080911C018130A1F480931B01809110014A
:1001F00090911101019690931101809310018091CB
:10020000170190911801019690931801809317019E
:10021000809119018130A9F482E080931B018091C3
:100220001001909111010197909311018093100199
:100230008091170190911801019790931801809374
:10024000170180911C01882309F0C8C08091190111
:10025000882309F0C3C010921B01C0C080911A010D
:100260008130F1F580911C018823A1F410921B01CB
:100270008091100190911101019790931101809349
:100280001001809117019091180101979093180126
:1002900080931701809119018130A9F483E0809344
:1002A0001B01809110019091110101969093110111
:1002B00080931001809117019091180101969093FD
:1002C00018018093170190911C01913009F086C0AC
:1002D00080911901882309F081C090931B017EC091
:1002E00080911A018230E9F580911C018130A9F4D6
:1002F00083E080931B01809110019091110101977F
:100300009093110180931001809117019091180131
:100310000197909318018093170180911901882308
:10032000A1F410921B01809110019091110101968E
:100330009093110180931001809117019091180101
:100340000196909318018093170180911C018823D6
:1003500009F044C080911901813009F03FC082E06A
:100360003BC080911C018823A9F482E080931B018B
:100370008091100190911101019690931101809349
:100380001001809117019091180101969093180126
:1003900080931701809119018823A9F481E080934B
:1003A0001B0180911001909111010197909311010F
:1003B00080931001809117019091180101979093FB
:1003C00018018093170180911C01813039F48091CC
:1003D0001901813019F483E080931B0190911B0176
:1003E00080911A01981739F081E080931201809171
:1003F0001B0180931A0180911001909111018F3F90
:10040000910541F03CF08FEF90E0909311018093C3
:1004100010010AC0809110019091110197FF04C052
:100420001092110110921001809117019091180102
:100430000C971CF48CE090E008C08091170190911B
:100440001801849734F083E290E090931801809330
:1004500017019F918F910F900FBE0F901F901895CD
:10046000E0E8F0E0808183628083E1E8F0E0808171
:100470008D61808388E391E0909389008093880068
:1004800008951F920F920FB60F9211242F933F934E
:100490008F939F93809115019091160101969093EF
:1004A00016018093150185B190E1892785B92091C6
:1004B00015013091160180911301909114012817B4
:1004C000390749F4809181008E7F809381001092DA
:1004D0001601109215019F918F913F912F910F90CE
:1004E0000FBE0F901F901895E0EBF0E080818360C5
:1004F000808380818068808380E88093B300E1EB13
:10050000F0E080818760808308950E94740280916A
:100510008000836280938000809181008D61809350
:10052000810088E391E09093890080938800809116
:10053000680082608093680080916C008063809383
:100540006C00789488B1806388B984B18C6084B978
:1005500086B1807180931C0186B1807280931901ED
:1005600080911901882339F480911C01882319F4A2
:1005700010921A0117C080911901882331F48091DB
:100580001C01882311F081E00BC0809119018823A0
:1005900031F080911C01882311F482E001C083E0D6
:1005A00080931A0180911A0180931B0143E032E08D
:1005B00021E086B1807180931C0186B180728093A6
:1005C000190180911901882339F480911C01882335
:1005D00019F410921A0118C080911901882339F476
:1005E00080911C01882319F020931A010DC080917D
:1005F0001901882339F080911C01882319F4309364
:100600001A0102C040931A0180911A0180931B01C4
:1006100080911201882369F21092120180911001D9
:10062000909111018093B30080911701909118016E
:1006300090938B0080938A00BCCF97FB092E0726EE
:100640000AD077FD04D00CD006D000201AF47095A3
:1006500061957F4F0895F6F7909581959F4F089586
:10066000AA1BBB1B51E107C0AA1FBB1FA617B707D8
:1006700010F0A61BB70B881F991F5A95A9F78095F4
:0C0680009095BC01CD010895F894FFCFC7
:10068C00060126014A015D018801B801EE010B0249
:02069C008000DC
:00000001FF
